:100000000C94F1050C9422060C9422060C94220602
:100010000C9422060C9422060C9422060C942206C0
:100020000C9422060C9422060C9422060C942206B0
:100030000C9422060C9422060C9422060C942206A0
:100040000C9422060C9422060C9422060C94220690
:100050000C9422060C9422060C9422060C946A0E30
:100060000C9422060C94820F0C94B80F0C94220668
:100070000C9422060C9422060C9422060C94220660
:100080000C9422060C9422060C9422060C94220650
:100090000C9422060C9422060C9422060C94220640
:1000A0000C9422060C9422060C9422060C94220630
:1000B0000C9422060C9422060C9422060C94220620
:1000C0000C9422060C9422060C9422060C94220610
:1000D0000C9422060C9422060C9422060C94220600
:1000E0000C9422062434273416341A3420345E3417
:1000F0002B342F34353439343D34433447344B3486
:100100005E345134553459340C944B340C9443348C
:100110000C945E340C946D1C0C9420340C94353487
:100120000C94DD130C9419100C942B340C94E20FE6
:100130000C94EC0F0C9427340C9439340C943D340B
:100140000C94C7100C9424340C9455150C941A3448
:100150000C9426270C949C260C9483110C945134F7
:100160000C9425100C9436260C94EC140C94F02767
:100170000C9486140C94D5140C942F340C94553490
:100180000C9447100C9459340C9402150C943715A8
:100190000C948E060C9447340C94A5100C94D12525
:1001A0000C9416340C9433100C94CB34446F6E655D
:1001B0002100526F756E64656420726563747320EC
:1001C0002866696C6C65642920202000526F756E6A
:1001D00064656420726563747320286F75746C693C
:1001E0006E6529202000547269616E676C6573200A
:1001F0002866696C6C65642920202020202020005E
:10020000547269616E676C657320286F75746C69D0
:100210006E652920202020202000436972636C65D0
:100220007320286F75746C696E652920202020204A
:1002300020202000436972636C6573202866696C16
:100240006C65642920202020202020202000526579
:100250006374616E676C6573202866696C6C656495
:10026000292020202020200052656374616E676C75
:10027000657320286F75746C696E652920202020B5
:100280002000486F72697A2F56657274204C696E2F
:100290006573202020202020202020004C696E65DE
:1002A00073202020202020202020202020202020FB
:1002B0002020202020005465787420202020202039
:1002C000202020202020202020202020202020004E
:1002D00053637265656E2066696C6C202020202057
:1002E0002020202020202020200042656E63686DA1
:1002F00061726B2020202020202020202020202020
:1003000020202054696D6520286D6963726F7365C4
:10031000636F6E64732900466F756E6420494C49A3
:1003200039343838204C4344206472697665720051
:100330005573696E67204164616672756974203215
:100340002E38222054465420427265616B6F7574BA
:1003500020426F6172642050696E6F75740054465C
:1003600054204C4344207465737400000000000066
:100370003E5B4F5B3E3E6B4F6B3E1C3E7C3E1C1813
:100380003C7E3C181C577D571C1C5E7F5E1C001871
:100390003C1800FFE7C3E7FF0018241800FFE7DB65
:1003A000E7FF30483A060E2629792926407F0505C1
:1003B00007407F05253F5A3CE73C5A7F3E1C1C08FE
:1003C000081C1C3E7F14227F22145F5F005F5F06C3
:1003D000097F017F006689956A606060606094A211
:1003E000FFA29408047E040810207E201008082A2A
:1003F0001C08081C2A08081E101010100C1E0C1EC9
:100400000C30383E3830060E3E0E0600000000006C
:1004100000005F00000007000700147F147F142411
:100420002A7F2A1223130864623649562050000896
:10043000070300001C2241000041221C002A1C7FEF
:100440001C2A08083E0808008070300008080808C8
:1004500008000060600020100804023E5149453E3B
:1004600000427F400072494949462141494D3318B5
:1004700014127F1027454545393C4A4949314121ED
:100480001109073649494936464949291E000014D1
:100490000000004034000000081422411414141419
:1004A00014004122140802015909063E415D594ECB
:1004B0007C1211127C7F494949363E414141227FDD
:1004C0004141413E7F494949417F090909013E4176
:1004D0004151737F0808087F00417F41002040415F
:1004E0003F017F081422417F404040407F021C02B0
:1004F0007F7F0408107F3E4141413E7F0909090684
:100500003E4151215E7F0919294626494949320356
:10051000017F01033F4040403F1F2040201F3F40DC
:1005200038403F6314081463030478040361594995
:100530004D43007F414141020408102000414141E8
:100540007F040201020440404040400003070800CD
:1005500020545478407F2844443838444444283850
:100560004444287F385454541800087E090218A4C3
:10057000A49C787F0804047800447D40002040401B
:100580003D007F1028440000417F40007C04780437
:10059000787C080404783844444438FC182424182F
:1005A00018242418FC7C08040408485454542404D7
:1005B000043F44243C4040207C1C2040201C3C4004
:1005C00030403C44281028444C9090907C44645423
:1005D0004C44000836410000007700000041360816
:1005E0000002010204023C2623263C1EA1A1611246
:1005F0003A4040207A385454555921555579412173
:1006000054547841215554784020545579400C1E5B
:100610005272123955555559395454545939555403
:1006200054580000457C410002457D420001457C54
:1006300040F0292429F0F0282528F07C5455450065
:100640002054547C547C0A097F493249494932324A
:1006500048484832324A4848303A4141217A3A4281
:10066000402078009DA0A07D39444444393D40405D
:10067000403D3C24FF2424487E4943662B2FFC2F19
:100680002BFF0929F620C0887E09032054547941A4
:100690000000447D413048484A32384040227A00C8
:1006A0007A0A0A727D0D19317D2629292F282629DB
:1006B00029292630484D402038080808080808082D
:1006C00008382F10C8ACBA2F102834FA00007B006D
:1006D0000008142A142222142A1408AA005500AA79
:1006E000AA55AA55AA000000FF00101010FF001420
:1006F0001414FF001010FF00FF1010F010F014147D
:1007000014FC001414F700FF0000FF00FF1414F4A1
:1007100004FC141417101F10101F101F1414141FA2
:1007200000101010F0000000001F101010101F101B
:10073000101010F010000000FF101010101010101A
:100740001010FF10000000FF140000FF00FF000069
:100750001F10170000FC04F414141710171414F4DD
:1007600004F40000FF00F714141414141414F70018
:10077000F7141414171410101F101F141414F41469
:100780001010F010F000001F101F0000001F1400D8
:100790000000FC140000F010F01010FF10FF141403
:1007A00014FF141010101F00000000F010FFFFFFD6
:1007B000FFFFF0F0F0F0F0FFFFFF0000000000FF8F
:1007C000FF0F0F0F0F0F38444438447C2A2A3E1481
:1007D0007E02020606027E027E02635549416338AC
:1007E00044443C04407E201E2006027E020299A55D
:1007F000E7A5991C2A492A1C4C7201724C304A4DBB
:100800004D303048784830BC625A463D3E494949EF
:10081000007E0101017E2A2A2A2A2A44445F444498
:1008200040514A444040444A51400000FF0103E027
:1008300080FF000008086B6B083612362436060F5E
:10084000090F06000018180000001010003040FFCB
:100850000101001F01011E00191D1712003C3C3C44
:100860003C00000000000100E00F00071009170B1A
:10087000408A4B0A0D0F15160FE10F001A1B020DCF
:1008800005303543020A0932360FB101A0B4010226
:10089000C0021715C10141C503000A80B601023626
:1008A00001483A0155E90100F704A9512C821100D1
:1008B000FF7829000100E901201100FF64D1030045
:1008C0007119D0030701083601483A0105C1041027
:1008D000100202C006003100000102C50104D2026C
:1008E0000144C80F0467350408062401374003108B
:1008F0000880002A04000000EF2B050000013F8F54
:1009000029002C000100CB05392C003402CF030054
:10091000C130E803850078EA020000ED04640312A8
:1009200081F70120C00123C10110C5023E28C70183
:10093000863601483A0155B1020018B603088227ED
:10094000F20100260101E00F0F312B0C0E084EF1D1
:10095000370710030E0900E10F000E1403110731D1
:10096000C148080F0C31360F1100FF9629002C00EA
:1009700000000100FF00320001000001020000073A
:10098000030030100400000008000202090000000B
:100990000A0000000C0000000D0000000F00000025
:1009A00010000000110007001200000013000000FA
:1009B000FF00C8001000901611002702FF0032004F
:1009C00012001A00FF0032001300001829002A004C
:1009D000FF00320030000000310000003200000053
:1009E000350006023600080837000700380001020B
:1009F000390000003C0000003D0000002000000025
:100A000021000000500000005100EF0052000000E3
:100A100053003F01600000A7610003006A0000006E
:100A20009000100092000000930003009500001158
:100A30009700000098000000070033010100B9038F
:100A4000FF8357FFFAB30400000606B60125B00184
:100A500068CC0105B10600151C1C83AAC0065050C5
:100A6000013C1E08B4070240002A2A0D783A0155BD
:100A70003601C0350100440200021100FF96290032
:100A8000FF322E89298F2B02E200E401E510E601F6
:100A9000E710E870F200EA00EB20EC3CEDC8E93822
:100AA000F1011B1A1A022461255C183619011F88EE
:100AB000FF051F80FF051F90FF051FD4FF051705C9
:100AC00036092838FF28283C02000300040005EFFF
:100AD000060007000801093F00000A0B02090C0D7F
:100AE0000E080703040100000000000000000000E1
:100AF00000000000000000000000000000000000F6
:100B000000000000121110000000000000000000B2
:100B100000000000000000000000000000000102D2
:100B200010202008081020401020408002010201FF
:100B300008040201010204081020408080402010B7
:100B40000804020180040201804020100804020110
:100B50000804020101020408102040800102040878
:100B60001020408005050505070508080808020251
:100B700002020A0A08080404040401010101010137
:100B800001010303030303030303040707070C0C1A
:100B90000C0C0C0C0C0C02020202060606060606E1
:100BA00006060B0B0B0B0B0B0B0B0000220025009A
:100BB00028002B002E003100340002010000050146
:100BC00008010B0100002100240027002A002D004D
:100BD0003000330001010000040107010A018E0604
:100BE000EC0F11241FBECFEFD1E2DEBFCDBF00E07E
:100BF0000CBF13E0A0E0B2E0E6E0FFE600E00BBFD0
:100C000002C007900D92AC33B107D9F724E0ACE3F2
:100C1000B3E001C01D92AB30B207E1F715E0C1EFC0
:100C2000D5E000E006C021970109802FFE010E9457
:100C30004737CF3ED10780E00807A9F70E9474111B
:100C40000C94D2340C9400002F923F924F925F92FA
:100C50006F927F928F929F92AF92BF92CF92DF92CC
:100C6000EF92FF920F931F93CF93DF9300D01F92C9
:100C7000CDB7DEB77A836983282F30E03C832B839E
:100C80005901AA0CBB1C8CE393E00E94EA1C6B8008
:100C90007C80680E791E8CE393E00E94EE1C8B80B2
:100CA0009C80880E991E0E94B40E1B012C01E12C21
:100CB000F12CE614F704ACF4C12CD12CC814D904DF
:100CC0006CF409811A812B813C81A601B7018CE368
:100CD00093E00E947415CA0CDB1CF0CFEA0CFB1CDD
:100CE000E8CF0E94B40E62197309840995090F9028
:100CF0000F900F900F90DF91CF911F910F91FF9068
:100D0000EF90DF90CF90BF90AF909F908F907F90AB
:100D10006F905F904F903F902F900895EF920F93B8
:100D200089E2E82E0AE227E246E268E28CE393E0F9
:100D30000E94091D0F91EF900895CF92DF92EF92DC
:100D4000FF920E94B40E6B017C0160E070E08CE3C6
:100D500093E00E94262760E078EF8CE393E00E9406
:100D6000262760EE77E08CE393E00E9426276FE170
:100D700070E08CE393E00E94262760E070E08CE353
:100D800093E00E9426270E94B40E6C197D098E09FB
:100D90009F09FF90EF90DF90CF900895CF92DF9260
:100DA000EF92FF9260E070E08CE393E00E942627D0
:100DB0000E94B40E6B017C0140E050E060E070E006
:100DC0008CE393E00E94C31C6FEF7FEF8CE393E012
:100DD0000E94CF1C61E08CE393E00E94C91C60E09C
:100DE00072E08CE393E00E94061260EE7FEF8CE3EA
:100DF00093E00E94CF1C62E08CE393E00E94C91C48
:100E000022E030E04CEE51E56AE974E48CE393E0D3
:100E10000E94CB1360E078EF8CE393E00E94CF1C3C
:100E200063E08CE393E00E94C91C20E130E04FEEC8
:100E30005EEB6DEA7EED8CE393E00E94D6128CE3CC
:100E400093E00E94F01160EE77E08CE393E00E9463
:100E5000CF1C65E08CE393E00E94C91C6DE072E05A
:100E60008CE393E00E94061262E08CE393E00E9420
:100E7000C91C63E172E08CE393E00E94061261E01A
:100E80008CE393E00E94C91C63E272E08CE393E080
:100E90000E9406126EE372E08CE393E00E94061259
:100EA00069E572E08CE393E00E94061265E772E068
:100EB0008CE393E00E94061269E872E08CE393E011
:100EC0000E9406126CE972E08CE393E00E94061225
:100ED00066EB72E08CE393E00E9406120E94B40E6F
:100EE0006C197D098E099F09FF90EF90DF90CF90DC
:100EF0000895CF93C0E06C2F8CE393E00E94FC290F
:100F00000E94CE0660ED77E080E090E00E94D90E6E
:100F1000CF5FC43081F7CF9108952F923F924F92C7
:100F20005F926F927F928F929F92AF92BF92CF9279
:100F3000DF92EF92FF920F931F93CF93DF9300D036
:100F40001F92CDB7DEB7F82E4B018CE393E00E94E1
:100F5000EA1C9A8389838CE393E00E94EE1C1C01B7
:100F60008F2D90E09C838B835C01AA0CBB1C60E0FE
:100F700070E08CE393E00E9426270E94B40E2B01C0
:100F80003C01CB80DC80E981FA81CE16DF06A4F437
:100F9000EB80FC80E214F30464F484012B813C8137
:100FA000A701B6018CE393E00E946418EA0CFB1CD5
:100FB000F1CFCA0CDB1CE7CF0E94B40E641975098F
:100FC000860997090F900F900F900F90DF91CF91A6
:100FD0001F910F91FF90EF90DF90CF90BF90AF9057
:100FE0009F908F907F906F905F904F903F902F9049
:100FF00008952F923F924F925F926F927F928F92BD
:101000009F92AF92BF92CF92DF92EF92FF920F9397
:101010001F93CF93DF93CDB7DEB728970FB6F89421
:10102000DEBF0FBECDBF8CE393E00E94EA1C97FDAC
:1010300001964C0195948794240121E0421A5108AD
:101040008CE393E00E94EE1C97FD01968C011595B0
:101050000795780131E0E31AF10860E070E08CE375
:1010600093E00E942627FA82E9824E145F0414F46A
:101070005A8249820E94B40E6B837C838D839E8347
:10108000F886EF821701612C712C801A910AE98190
:10109000FA816E167F0624F5262D40E060E08CE391
:1010A00093E00E944C20EF80F884E80CF91C940136
:1010B000220D331D5C01CF80D8848601A101B201CD
:1010C0008CE393E00E94D51945E0640E711C55E055
:1010D000251A31088F819885059698878F83D7CFF9
:1010E0000E94B40E2B813C814D815E81621B730B8B
:1010F000840B950B28960FB6F894DEBF0FBECDBFBC
:10110000DF91CF911F910F91FF90EF90DF90CF90E3
:10111000BF90AF909F908F907F906F905F904F9017
:101120003F902F9008952F923F924F925F926F922F
:101130007F928F929F92AF92BF92CF92DF92EF9267
:10114000FF920F931F93CF93DF93CDB7DEB76097D6
:101150000FB6F894DEBF0FBECDBF8CE393E00E94C4
:10116000EA1C97FD01968C0115950795180121E061
:10117000221A31088CE393E00E94EE1C97FD019641
:101180004C0195948794340131E0631A710860E052
:1011900070E08CE393E00E9426270E94B40E788AC8
:1011A0006F862614370414F4388A2F86412C512C6C
:1011B0003201A8014150510958874F83C40101975A
:1011C0009A8789878F8598890B970CF45BC00E945A
:1011D000B40E6B877C878D879E872F85422F60E0BA
:1011E0008CE393E00E944C20EF81F8852F853889AD
:1011F000E20FF31FFE83ED8389849A84820E931E8F
:101200004F815885421B530B5C834B83E985FA85DC
:10121000E21BF30BFA83E9835C016401ED80FE803D
:1012200084019A01AF01B1018CE393E00E94301A6E
:101230000E94B40EDC01CB012B853C854D855E857B
:10124000821B930BA40BB50B480E591E6A1E7B1E06
:1012500020E04F85642F8CE393E00E944C205C01DA
:10126000ED80FE802B813C8149815A81B1018CE364
:1012700093E00E94D5194F85588945505109588BE4
:101280004F87A0CFC301B20160960FB6F894DEBFBE
:101290000FBECDBFDF91CF911F910F91FF90EF90C7
:1012A000DF90CF90BF90AF909F908F907F906F9086
:1012B0005F904F903F902F9008952F923F924F92C2
:1012C0005F926F927F928F929F92AF92BF92CF92D6
:1012D000DF92EF92FF920F931F93CF93DF938CE3F4
:1012E00093E00E94EA1C97FD0196959587951C0155
:1012F00021E0221A31088CE393E00E94EE1C97FD56
:101300000196959587954C0121E0821A910860E03D
:1013100070E08CE393E00E9426278CE393E00E9428
:10132000EA1CEC018CE393E00E94EE1CC817D9077D
:101330002CF48CE393E00E94EA1C04C08CE393E05D
:101340000E94EE1C5C010E94B40E2B013C01C0E027
:10135000D0E0CA15DB0544F58E01D7FF02C00F5F50
:101360001F4F1595079520E040E06C2F8CE393E02C
:101370000E944C207E01D7FF03C027E0E20EF11C43
:1013800023E0F594E7942A95E1F7A401401B510B63
:10139000B101601B710B6C018E019E018CE393E027
:1013A0000E949C182696D5CF0E94B40E6419750928
:1013B00086099709DF91CF911F910F91FF90EF90D0
:1013C000DF90CF90BF90AF909F908F907F906F9065
:1013D0005F904F903F902F9008954F925F926F9241
:1013E0007F928F929F92AF92BF92CF92DF92EF92B5
:1013F000FF920F931F93CF93DF938CE393E00E94B0
:10140000EA1C97FD0196959587954C0121E0821A7B
:1014100091088CE393E00E94EE1C97FD0196959550
:1014200087955C0121E0A21AB10860E070E08CE3CE
:1014300093E00E9426270E94B40E2B013C018CE30E
:1014400093E00E94EA1CEC018CE393E00E94EE1C06
:10145000C817D9072CF48CE393E00E94EA1C04C05F
:101460008CE393E00E94EE1CEC01C531D105FCF049
:101470008E011595079520E04C2F60E08CE393E0FA
:101480000E944C207E0123E0F594E7942A95E1F731
:10149000A501401B510BB401601B710B6C018E0147
:1014A0009E018CE393E00E945C192697DECF0E9498
:1014B000B40E6419750986099709DF91CF911F91C0
:1014C0000F91FF90EF90DF90CF90BF90AF909F90E3
:1014D0008F907F906F905F904F9008952F923F92E2
:1014E0004F925F926F927F928F929F92AF92BF9234
:1014F000CF92DF92EF92FF920F931F93CF93DF93E0
:1015000000D01F92CDB7DEB72C018CE393E00E9490
:10151000EA1C6C018CE393E00E94EE1C3C0160E04D
:1015200070E08CE393E00E942627130121E0221A49
:1015300031080E94B40EA12CB12CAC14BD047CF473
:1015400072018101950140E050E060E070E08CE3C1
:1015500093E00E94DD1336E0A30EB11CEECF4601EE
:1015600041E0841A9108A12CB12CA614B7047CF494
:1015700072018501940140E050E060E070E08CE38E
:1015800093E00E94DD1356E0A50EB11CEECF0E9441
:10159000B40E60E070E08CE393E00E9426270E9486
:1015A000B40EA12CB12CAC14BD0474F472018101F1
:1015B000950140E050E0B4018CE393E00E94DD131C
:1015C00086E0A80EB11CEFCFA12CB12CA614B70455
:1015D0007CF47201850120E030E040E050E0B4018D
:1015E0008CE393E00E94DD13E6E0AE0EB11CEECF7B
:1015F0000E94B40E60E070E08CE393E00E94262726
:101600000E94B40EA12CB12CAC14BD047CF4720168
:1016100000E010E09501A10160E070E08CE393E050
:101620000E94DD13F6E0AF0EB11CEECFA12CB12C61
:10163000A614B70474F4720185019401A10160E05D
:1016400070E08CE393E00E94DD1326E0A20EB11C53
:10165000EFCF0E94B40E60E070E08CE393E00E9454
:1016600026270E94B40E69837A838B839C83A12CE6
:10167000B12CAC14BD0474F4720100E010E09501CB
:10168000A101B4018CE393E00E94DD1336E0A30EC8
:10169000B11CEFCFC12CD12CC614D70474F4720145
:1016A000860120E030E0A101B4018CE393E00E94C8
:1016B000DD1346E0C40ED11CEFCF0E94B40E298189
:1016C0003A814B815C81621B730B840B950B0F90ED
:1016D0000F900F900F90DF91CF911F910F91FF907E
:1016E000EF90DF90CF90BF90AF909F908F907F90C2
:1016F0006F905F904F903F902F9008954F925F9220
:101700006F927F928F929F92AF92BF92CF92DF9211
:10171000EF92FF920F931F93CF93DF935C014B01E6
:101720008CE393E00E94EA1C7C018CE393E00E942E
:10173000EE1C6C0160E070E08CE393E00E942627D1
:101740000E94B40E2B013C01C0E0D0E0CC15DD05B9
:101750005CF485019701AE0160E070E08CE393E0FA
:101760000E94D1252596F2CFC0E0D0E0CE15DF054E
:101770005CF48401960140E050E0BE018CE393E00C
:101780000E9436262596F2CF0E94B40E6419750980
:1017900086099709DF91CF911F910F91FF90EF90EC
:1017A000DF90CF90BF90AF909F908F907F906F9081
:1017B0005F904F9008952F923F924F925F926F9259
:1017C0007F928F929F92AF92BF92CF92DF92EF92D1
:1017D000FF920F931F93CF93DF935C018CE393E011
:1017E0000E94EA1C97FD01961C01359427948CE316
:1017F00093E00E94EE1C97FD01964C01959487940E
:1018000060E070E08CE393E00E9426278CE393E095
:101810000E94EA1CEC018CE393E00E94EE1CC817C6
:10182000D9072CF48CE393E00E94EA1C04C08CE3FB
:1018300093E00E94EE1C6C010E94B40E2B013C014F
:10184000C2E0D0E0CC15DD05A4F4CE01D7FD0196B1
:1018500095958795A401481B590BB101681B790B1D
:1018600075018E019E018CE393E00E9486142696FA
:10187000E9CF0E94B40E6419750986099709DF91B2
:10188000CF911F910F91FF90EF90DF90CF90BF907D
:10189000AF909F908F907F906F905F904F903F9010
:1018A0002F9008952F923F924F925F926F927F9266
:1018B0008F929F92AF92BF92CF92DF92EF92FF9260
:1018C0000F931F93CF93DF93CDB7DEB72A970FB651
:1018D000F894DEBF0FBECDBF9E838D8378876F8364
:1018E0008CE393E00E94EA1C97FD019695958795FD
:1018F0009C01215031093A8329838CE393E00E94B3
:10190000EE1C97FD019695958795FC013197FC8318
:10191000EB8360E070E08CE393E00E9426278CE389
:1019200093E00E94EA1C6C018CE393E00E94EE1CA1
:10193000C816D90654F48CE393E00E94EA1C9A87F7
:101940008987812C912C540105C08CE393E00E947F
:10195000EE1CF5CFE985FA851E161F06CCF5298405
:101960003A84359427940E94B40E2B013C01CB801D
:10197000DC80C218D30829813A8122193309190160
:10198000ED80FE8009851A859801A601B1018CE3DE
:1019900093E00E949C260E94B40EDC01CB018419C6
:1019A0009509A609B709880E991EAA1EBB1EEF80CD
:1019B000F88409851A859801A601B1018CE393E0AA
:1019C0000E94861489859A8506979A878987C2CF4F
:1019D000C501B4012A960FB6F894DEBF0FBECDBF85
:1019E000DF91CF911F910F91FF90EF90DF90CF90FB
:1019F000BF90AF909F908F907F906F905F904F902F
:101A00003F902F90089526E040E855E260E070E0B6
:101A10008EE693E00E940E116EE573E08EE693E091
:101A20000E94F41160E373E08EE693E00E94F411EB
:101A300066EC72E08EE693E00E94E7118CE393E09F
:101A40000E94EA1C4AE050E0BC018EE693E00E944E
:101A5000AB1263ED72E08EE693E00E94E7118CE337
:101A600093E00E94EE1C4AE050E0BC018EE693E059
:101A70000E94B2128CE393E00E94BC1D67E173E008
:101A80008EE693E00E94F41168E874E98CE393E039
:101A90000E94932B6AEE72E08EE693E00E94F411AE
:101AA00060ED72E08EE693E00E94C3110E949D06F5
:101AB000AB01BC012AE030E08EE693E00E94D61232
:101AC00064EF71E080E090E00E94D90E66EB72E076
:101AD0008EE693E00E94C3110E94CE06AB01BC01CA
:101AE0002AE030E08EE693E00E94D61268EB7BE0BD
:101AF00080E090E00E94D90E6CE972E08EE693E0FF
:101B00000E94C3118FEF97E00E946E0AAB01BC01E7
:101B10002AE030E08EE693E00E94D61264EF71E096
:101B200080E090E00E94D90E62E872E08EE693E0D9
:101B30000E94C3116FE170E080E098EF0E947E0B7D
:101B4000AB01BC012AE030E08EE693E00E94D612A1
:101B500064EF71E080E090E00E94D90E68E672E0E8
:101B60008EE693E00E94C31180EE97E00E94DB0BAB
:101B7000AB01BC012AE030E08EE693E00E94D61271
:101B800064EF71E080E090E00E94D90E6EE472E0B4
:101B90008EE693E00E94C3116FE178EF80EE9FEF35
:101BA0000E94520CAB01BC012AE030E08EE693E0CB
:101BB0000E94D61264EF71E080E090E00E94D90E9E
:101BC00064E372E08EE693E00E94C3116FE178EF68
:101BD0008AE00E948D07AB01BC012AE030E08EE66E
:101BE00093E00E94D6126AE172E08EE693E00E94D2
:101BF000C3116FEF7FEF8AE00E942406AB01BC01A6
:101C00002AE030E08EE693E00E94D61264EF71E0A5
:101C100080E090E00E94D90E60E072E08EE693E0F2
:101C20000E94C3110E94F907AB01BC012AE030E019
:101C30008EE693E00E94D61264EF71E080E090E0BF
:101C40000E94D90E66EE71E08EE693E00E94C31109
:101C50000E949308AB01BC012AE030E08EE693E0DD
:101C60000E94D61264EF71E080E090E00E94D90EED
:101C70006CEC71E08EE693E00E94C3110E945D0956
:101C8000AB01BC012AE030E08EE693E00E94D61260
:101C900064EF71E080E090E00E94D90E62EB71E0A9
:101CA0008EE693E00E94C3110E94ED09AB01BC01D6
:101CB0002AE030E08EE693E00E94D61264EF71E0F5
:101CC00080E090E00E94D90E6CEA71E08EE693E02D
:101CD0000C94F4111F920F920FB60F9211242F93B0
:101CE0003F938F939F93AF93BF938091660390919F
:101CF0006703A0916803B09169033091650323E005
:101D0000230F2D3720F40196A11DB11D05C026E833
:101D1000230F0296A11DB11D2093650380936603D6
:101D200090936703A0936803B093690380916A035B
:101D300090916B03A0916C03B0916D030196A11D6E
:101D4000B11D80936A0390936B03A0936C03B093CF
:101D50006D03BF91AF919F918F913F912F910F9004
:101D60000FBE0F901F9018953FB7F89480916A03AB
:101D700090916B03A0916C03B0916D0326B5A89B65
:101D800005C02F3F19F00196A11DB11D3FBFBA2F0D
:101D9000A92F982F8827820F911DA11DB11DBC016D
:101DA000CD0142E0660F771F881F991F4A95D1F732
:101DB00008958F929F92AF92BF92CF92DF92EF924F
:101DC000FF926B017C010E94B40E4B015C01C114B7
:101DD000D104E104F10401F10E9408340E94B40E20
:101DE000DC01CB0188199909AA09BB09883E9340F7
:101DF000A105B10560F321E0C21AD108E108F1089C
:101E000088EE880E83E0981EA11CB11CC114D10479
:101E1000E104F10419F7DBCFFF90EF90DF90CF9052
:101E2000BF90AF909F908F9008958230910538F0C9
:101E3000880F991F880F991F05970197F1F708954B
:101E4000789484B5826084BD84B5816084BD85B595
:101E5000826085BD85B5816085BDEEE6F0E080815C
:101E600081608083E1E8F0E010828081826080837D
:101E7000808181608083E0E8F0E080818160808300
:101E8000E1EBF0E0808184608083E0EBF0E0808132
:101E900081608083E1E9F0E08081826080838081DD
:101EA00081608083E0E9F0E0808181608083E1EA05
:101EB000F0E0808182608083808181608083E0EABD
:101EC000F0E0808181608083E1E2F1E080818260E6
:101ED0008083808181608083E0E2F1E080818160A5
:101EE0008083EAE7F0E08081846080838081826083
:101EF000808380818160808380818068808310926C
:101F0000C10008951F920F920FB60F9211240BB6C5
:101F10000F922F938F939F93EF93FF93E0917E0304
:101F2000F0917F038081E0918403F091850382FD2D
:101F300012C09081809187038F5F8F7320918803F7
:101F4000821751F0E0918703F0E0E259FC4F958F42
:101F50008093870301C08081FF91EF919F918F91C2
:101F60002F910F900BBE0F900FBE0F901F901895E2
:101F70001F920F920FB60F9211240BB60F922F9350
:101F80003F934F935F936F937F938F939F93AF9301
:101F9000BF93EF93FF938EE693E00E948410FF912E
:101FA000EF91BF91AF919F918F917F916F915F91D1
:101FB0004F913F912F910F900BBE0F900FBE0F903E
:101FC0001F9018958EE693E00E94191021E0892B4E
:101FD00009F420E0822F0895EEE6F3E013821282E6
:101FE00088EE93E0A0E0B0E084839583A683B78376
:101FF00089ED92E09183808385EC90E095878487DA
:1020000084EC90E09787868780EC90E0918B808BC2
:1020100081EC90E0938B828B82EC90E0958B848BAB
:1020200086EC90E0978B868B118E128E138E148E19
:102030000895FC01918D228D892F90E0805C9F4F47
:10204000821B91098F7399270895FC01918D828DD0
:10205000981731F0828DE80FF11D858D90E008957D
:102060008FEF9FEF0895FC01918D828D981761F09D
:10207000828DDF01A80FB11D5D968C91928D9F5FBF
:102080009F73928F90E008958FEF9FEF089582EEF7
:102090009FE0892B41F080E090E0892B21F00E94A5
:1020A000E20F811125C080E090E0892B41F080E0B3
:1020B00090E0892B21F00E94000081111CC080E07B
:1020C00090E0892B41F080E090E0892B21F00E9484
:1020D0000000811113C080E090E0892BA1F080E026
:1020E00090E0892B81F00E94000081110AC00895C0
:1020F0000E940000D8CF0E940000E1CF0E940000A3
:10210000EACF0C9400000895FC01848DDF01A80F34
:10211000B11DA35ABF4F2C91848D90E001968F730F
:102120009927848FA689B7892C93A089B1898C912E
:1021300080648C93938D848D981306C00288F389F4
:10214000E02D80818F7D80830895CF93DF93EC0114
:10215000888D8823C9F0EA89FB89808185FD05C0C7
:10216000A889B9898C9186FD0FC00FB607FCF5CF01
:10217000808185FFF2CFA889B9898C9185FFEDCF49
:10218000CE010E948410E7CFDF91CF910895EF92A6
:10219000FF920F931F93CF93DF93EC0181E0888F21
:1021A0009B8D8C8D981305C0E889F989808185FD08
:1021B00024C0F62E0B8D10E00F5F1F4F0F731127F9
:1021C000E02E8C8DE8120CC00FB607FCFACFE88920
:1021D000F989808185FFF5CFCE010E948410F1CF6F
:1021E0008B8DFE01E80FF11DE35AFF4FF0820B8F3C
:1021F000EA89FB898081806207C0EE89FF8960835C
:10220000E889F98980818064808381E090E0DF91B2
:10221000CF911F910F91FF90EF900895CF92DF9291
:10222000EF92FF921F93CF93DF93EC016A017B0142
:10223000122FE889F98982E080834115514E6105AA
:102240007105B1F060E079E08DE390E0A7019601BF
:102250000E942537DA01C9010197A109B109B69594
:10226000A79597958795AC01411580E15807A8F08F
:10227000E889F989108260E874E88EE190E0A701AE
:1022800096010E942537BA01A901415051096109FF
:1022900071097695679557954795EC85FD8550832F
:1022A000EE85FF854083188EEC89FD891083EA89CD
:1022B000FB89808180618083EA89FB8980818860D5
:1022C0008083EA89FB89808180688083EA89FB8931
:1022D00080818F7D8083DF91CF911F91FF90EF9060
:1022E000DF90CF90089508950E94200F0E947311EF
:1022F0000E94030DC7E4D0E10E9479072097E1F323
:102300000E944710F9CFCF92DF92EF92FF920F9386
:102310001F93CF93DF936C017A018B01C0E0D0E073
:10232000CE15DF0589F0D8016D918D01D601ED91B3
:10233000FC910190F081E02DC6011995892B11F4D3
:102340007E0102C02196ECCFC701DF91CF911F9192
:102350000F91FF90EF90DF90CF9008956115710578
:1023600079F0FB0101900020E9F73197AF01461B9E
:10237000570BDC01ED91FC910280F381E02D199463
:1023800080E090E00895EF92FF920F931F93CF9318
:10239000DF938C017B01C0E0D0E0F701EC0FFD1F63
:1023A0006491662361F0D801ED91FC910190F08178
:1023B000E02DC8011995892B11F02196EECFCE01A1
:1023C000DF91CF911F910F91FF90EF9008950C94A2
:1023D000AE11DC01ED91FC910190F081E02D19949A
:1023E00065EE72E00C94AE110F931F93CF93DF93C1
:1023F000EC010E94C3118C01CE010E94F011800FEC
:10240000911FDF91CF911F910F9108950F931F930B
:10241000CF93DF93EC010E94AE118C01CE010E949C
:10242000F011800F911FDF91CF911F910F910895AF
:102430004F925F926F927F92EF92FF920F931F9352
:10244000CF93DF93CDB7DEB7A1970FB6F894DEBF79
:102450000FBECDBF7C01FA01CB0119A2223008F4D6
:102460002AE08E010F5D1F4F422E512C612C712CE2
:10247000BF01A30192010E942537F901CA01015051
:1024800011096A3014F4605D01C0695CD8016C9375
:10249000232B242B252B61F7B801C7010E94AE1115
:1024A000A1960FB6F894DEBF0FBECDBFDF91CF91DE
:1024B0001F910F91FF90EF907F906F905F904F90E2
:1024C0000895CF92DF92EF92FF920F931F93CF93D5
:1024D000DF93EC016A017B012115310579F4E88174
:1024E000F9810190F081E02D642FDF91CF911F9150
:1024F0000F91FF90EF90DF90CF9019942A30310523
:10250000E9F477FF1AC06DE20E94E9118C014427BB
:102510005527BA014C195D096E097F092AE0CE01E1
:102520000E941812800F911FDF91CF911F910F9180
:10253000FF90EF90DF90CF9008952AE0B701A601B9
:10254000CE01DF91CF911F910F91FF90EF90DF901F
:10255000CF900C9418129A01AB01770F660B770B92
:102560000C9461120F931F93CF93DF93EC019A01A8
:10257000AB01770F660B770B0E9461128C01CE01C5
:102580000E94F011800F911FDF91CF911F910F9149
:1025900008952115310541F4DC01ED91FC91019084
:1025A000F081E02D642F19940C9418120F931F934F
:1025B000CF93DF93EC010E94C9128C01CE010E94DF
:1025C000F011800F911FDF91CF911F910F9108950E
:1025D0004F925F926F927F928F929F92AF92BF9233
:1025E000CF92DF92EF92FF92CF93DF93EC016A01DB
:1025F0007B01B22E9A01AB01C701B6010E940C37D4
:10260000882319F068EE72E027C026013701E894AC
:1026100077F82FEF3FEF4FE75FE7C301B2010E946A
:102620000C3781110DC02FEF3FEF4FE75FE7C3017C
:10263000B2010E94423518161CF46CEE72E00CC018
:102640002FEF3FEF4FE75FE4C701B6010E949A36D4
:1026500018169CF460EF72E0CE01DF91CF91FF90ED
:10266000EF90DF90CF90BF90AF909F908F907F9032
:102670006F905F904F900C94AE112FEF3FEF4FE7AC
:102680005FECC701B6010E94423587FDE3CF20E031
:1026900030E0A901C701B6010E94423587FF0AC098
:1026A0006DE2CE010E94E9114C01F7FAF094F7F8BF
:1026B000F09402C0812C912CA12C60E070E080E0AD
:1026C0009FE3AB1441F020E030E040E251E40E948F
:1026D0004735A394F6CF9B01AC01C701B6010E9418
:1026E000D6342B013C010E94B9356B017C010E945C
:1026F000E8359B01AC01C301B2010E94D5342B0126
:102700003C012AE0B701A601CE010E9418127C010B
:10271000E80CF91CBB2039F06CE372E0CE010E949A
:10272000AE11E80EF91EDB2CDD2029F120E030E0AF
:1027300040E251E4C301B2010E949F362B013C01EB
:102740000E94B9354B01A12CB12C2AE0B501A4019E
:10275000CE010E941812E80EF91EC501B4010E94B4
:10276000E8359B01AC01C301B2010E94D5342B01B5
:102770003C01DA94D9CFC701DF91CF91FF90EF9060
:10278000DF90CF90BF90AF909F908F907F906F9091
:102790005F904F9008950F931F93CF93DF93EC01B9
:1027A0000E94E8128C01CE010E94F011800F911F4F
:1027B000DF91CF911F910F9108952F923F924F92E9
:1027C0005F926F927F928F929F92AF92BF92CF92C1
:1027D000DF92EF92FF920F931F93CF93DF9300D07E
:1027E000CDB7DEB74C017B836A836A0159011701BB
:1027F0009801241B350B37FF03C031952195310912
:10280000C5014A815B81841B950B97FF03C091959D
:102810008195910951E059838217930714F0198229
:102820000BC09A2D8B2D5801092F182F9A818B815F
:10283000DB82CA82C92ED82E8A819B81A816B9064E
:102840005CF49C2D8D2D6801092F182F9A818B81A6
:10285000BB82AA82A92EB82E2501AA81BB814A1A61
:102860005B0A38016C187D0877FE03C0719461948F
:102870007108720157FE03C0BFEFEB1AFB0AF59413
:10288000E794C016D1061CF00FEF1FEF1FC001E048
:1028900010E01CC0D401ED91FC91B9810480F58158
:1028A000E02D9101BB23C1F04A815B81B601C401D7
:1028B0001995E618F708F7FE04C0C00ED11EE40C07
:1028C000F51CEA81FB813196FB83EA834A815B81B7
:1028D000A416B506FCF604C0A6016A817B81E7CF89
:1028E0000F900F900F90DF91CF911F910F91FF905C
:1028F000EF90DF90CF90BF90AF909F908F907F90A0
:102900006F905F904F903F902F9008956F927F92BD
:102910008F929F92AF92BF92CF92DF92EF92FF92EF
:102920000F931F93CF93DF93EC014B015A01690181
:102930003801E881F9810284F385E02D870119953A
:10294000E881F981A501460D571D415051090284C6
:10295000F385E02D9601B401CE011995E881F98146
:102960000084F185E02D9301A501B401CE011995F4
:10297000E881F981C80CD91CB60161507109008445
:10298000F185E02D9301A501CE011995DF91CF913D
:102990001F910F91FF90EF90DF90CF90BF90AF907D
:1029A0009F908F907F906F900895EF92FF920F937A
:1029B0001F937801DC01ED91FC91240F351F8901F3
:1029C000015011090680F781E02D9B0119951F9197
:1029D0000F91FF90EF900895EF92FF920F931F9346
:1029E000DC01ED91FC91260F371F21503109068043
:1029F000F781E02D78018A0119951F910F91FF90C1
:102A0000EF9008956F927F928F929F92AF92BF92B4
:102A1000CF92DF92EF92FF920F931F93CF93DF93AA
:102A20006C015A014801EB013B01620E731EC61591
:102A3000D70574F4D601ED91FC910084F185E02D69
:102A400087019401A501BE01C60119952196EFCF1A
:102A5000DF91CF911F910F91FF90EF90DF90CF907A
:102A6000BF90AF909F908F907F906F900895EF925E
:102A7000FF920F931F93DC01ED91FC9111971A9631
:102A80000D911C911B9718962D913C9119970684D6
:102A9000F785E02D7B0140E050E060E070E01995A3
:102AA0001F910F91FF90EF9008950895FC011382FC
:102AB000128288EF92E091838083758364835783C9
:102AC00046837187608753874287158A15861486E7
:102AD0001786168681E0848B2FEF3FEF338B228B96
:102AE000318B208B868B08952F923F924F925F926D
:102AF0006F927F928F929F92AF92BF92CF92DF920E
:102B0000EF92FF920F931F93CF93DF9300D000D0EB
:102B1000CDB7DEB79E838D836B015A01790181E0C9
:102B200090E03C01621A730A88279927821B930B55
:102B30009C01220F331F3C832B83AD81BE81ED911D
:102B4000FC911197A5014E0D5F1D0480F581E02DCC
:102B50009801CD011995AD81BE81ED91FC91119740
:102B6000A5014E195F090480F581E02D9801B60199
:102B7000CD011995AD81BE81ED91FC911197B60102
:102B80006E0D7F1D0480F581E02D9801A501CD011A
:102B90001995AD81BE81ED91FC911197B6016E1929
:102BA0007F090480F581E02D9801A501CD011995DB
:102BB000812C912C8E149F040CF09DC077FC0AC0D0
:102BC000B1E0EB1AF108EB81FC813296FC83EB83D8
:102BD0006E0E7F1EFFEF8F1A9F0AC401880F991F88
:102BE0000196680E791E14012C0C3D1CAD81BE812E
:102BF000ED91FC9111970480F581E02D980125015C
:102C00004E0C5F1CA201B101CD011995F601E81926
:102C1000F909FA83E983AD81BE81ED91FC911197A9
:102C20000480F581E02D9801A20169817A81CD01AE
:102C30001995AD81BE81ED91FC9111970480F581CC
:102C4000E02D980125014E185F08A201B101CD01C8
:102C50001995AD81BE81ED91FC9111970480F581AC
:102C6000E02D9801A20169817A81CD011995240195
:102C70004A0C5B1CAD81BE81ED91FC9111970480E3
:102C8000F581E02D9801A20116012E0C3F1CB10127
:102C9000CD011995AD81BE81ED91FC911197048014
:102CA000F581E02D9801A201C6018E199F099A8332
:102CB0008983BC01CD011995250148185908AD81BA
:102CC000BE81ED91FC9111970480F581E02D980172
:102CD000A201B101CD011995AD81BE81ED91FC91AB
:102CE00011970480F581E02D9801A20169817A8114
:102CF000CD0119955FCF26960FB6F894DEBF0FBEB3
:102D0000CDBFDF91CF911F910F91FF90EF90DF909A
:102D1000CF90BF90AF909F908F907F906F905F907B
:102D20004F903F902F9008952F923F924F925F9235
:102D30006F927F928F929F92AF92BF92CF92DF92CB
:102D4000EF92FF920F931F93CF93DF9300D000D0A9
:102D5000CDB7DEB79E838D834B013A016901802F89
:102D600021E030E029014C185D08222433242C187E
:102D70003D08220C331CAA24A394B12C01E010E0DE
:102D8000982F94709983A82FA270AA83B82FB87037
:102D9000BB8381708C83C50101978C159D050CF058
:102DA000A6C057FC08C0E1E0CE1AD108F2E02F0E11
:102DB000311C420C531C0E5F1F4F400E511E898167
:102DC000882311F1AD81BE81ED91FC9111970480B2
:102DD000F581E02D9701A3014C0D5D1DB501680D36
:102DE000791DCD011995AD81BE81ED91FC911197B1
:102DF0000480F581E02D9701A501460D571DB40112
:102E00006C0D7D1DCD011995BA81BB2311F1AD81EA
:102E1000BE81ED91FC9111970480F581E02D970121
:102E2000A3014C195D09B501680D791DCD011995F6
:102E3000AD81BE81ED91FC9111970480F581E02D6B
:102E40009701A3014A195B09B4016C0D7D1DCD01E9
:102E50001995BB81BB2311F1AD81BE81ED91FC9130
:102E600011970480F581E02D9701A501460D571DAE
:102E7000B4016C197D09CD011995AD81BE81ED912B
:102E8000FC9111970480F581E02D9701A3014C0D71
:102E90005D1DB4016A197B09CD011995BC81BB2365
:102EA00011F1AD81BE81ED91FC9111970480F58106
:102EB000E02D9701A3014A195B09B4016C197D0942
:102EC000CD011995AD81BE81ED91FC9111970480E2
:102ED000F581E02D9701A3014C195D09B4016A1930
:102EE0007B09CD011995BFEFAB1ABB0A54CF2696CB
:102EF0000FB6F894DEBF0FBECDBFDF91CF911F910B
:102F00000F91FF90EF90DF90CF90BF90AF909F9088
:102F10008F907F906F905F904F903F902F9008958B
:102F20002F923F924F925F926F927F928F929F92D9
:102F3000AF92BF92CF92DF92EF92FF920F931F93C7
:102F4000CF93DF93CDB7DEB728970FB6F894DEBFE7
:102F50000FBECDBF5C013B014A0138872F83FC8245
:102F6000EB8281E090E02C01421A530AC90191954D
:102F7000819591099C01220F331F3A832983170100
:102F800033E0230E311CEE24E394F12C802F81706A
:102F90008D8302700E83C7010197EF81F8858E172C
:102FA0009F070CF078C057FC0CC0AF81B885119713
:102FB000B887AF83E981FA813296FA83E9834E0EAE
:102FC0005F1EC701880F991F0196480E591EFD818B
:102FD000FF2359F1D501ED91FC912F813885220F06
:102FE000331F2F5F3F4F8B819C81280F391F008437
:102FF000F185E02D8601A401AF81B8854A1B5B0BEA
:10300000B701660D771DC5011995D501ED91FC91AC
:103010000084F185E02D9101A4014E195F096F81B3
:103020007885660D771DC5011995BE81BB2361F1B9
:10303000D501ED91FC912F813885220F331F2F5F31
:103040003F4F8B819C81280F391F0084F185E02D33
:103050008601A401AF81B8854A1B5B0BB3016E19D1
:103060007F09C5011995D501ED91FC910084F18589
:10307000E02D9101A4014E195F09B3018F8198855C
:10308000681B790BC50119959FEFE91AF90AA2E0AF
:103090002A0E311C80CF28960FB6F894DEBF0FBEE3
:1030A000CDBFDF91CF911F910F91FF90EF90DF90F7
:1030B000CF90BF90AF909F908F907F906F905F90D8
:1030C0004F903F902F9008956F927F928F929F9292
:1030D000AF92BF92CF92DF92EF92FF920F931F9326
:1030E000CF93DF93EC014B013A0159016801E8816C
:1030F000F981220F331F2F5F3F4F4A195B0900846C
:10310000F185E02DCE011995E12CF12C03E095011C
:10311000A301B401CE010E949017DF91CF911F91BE
:103120000F91FF90EF90DF90CF90BF90AF909F9066
:103130008F907F906F9008952F923F924F925F9261
:103140006F927F928F929F92AF92BF92CF92DF92B7
:10315000EF92FF920F931F93CF93DF93CDB7DEB71C
:1031600028970FB6F894DEBF0FBECDBF98878F8328
:103170005B013A013A8329831C830B83470188272B
:1031800099278E199F099C01220F331F3E832D839F
:10319000E980FA80E20EF31E2B01480C591CAF8126
:1031A000B885ED91FC9111970284F385E02D86019D
:1031B0009701B201CD0119952B803C80260C371C5C
:1031C000AF81B885ED91FC911197A1014150510952
:1031D0000284F385E02D9701B201CD011995EB80B2
:1031E000FC80ED81FE81EE0EFF1E680C791CAF8124
:1031F000B885ED91FC9111970084F185E02D970140
:10320000A301B501CD011995E981FA81AE0EBF1E6A
:10321000AF81B885ED91FC911197B50161507109AD
:103220000084F185E02D9701A301CD011995760168
:1032300001E09401A301B2018F8198850E94941648
:10324000A818B908B1E0AB1AB10802E09401A301D3
:10325000B5018F8198850E9494163101681879080C
:10326000E1E06E1A710804E09401A301B5018F81B9
:1032700098850E94941608E09401A301B2018F8101
:1032800098850E94941628960FB6F894DEBF0FBE5C
:10329000CDBFDF91CF911F910F91FF90EF90DF9005
:1032A000CF90BF90AF909F908F907F906F905F90E6
:1032B0004F903F902F9008952F923F924F925F92A0
:1032C0006F927F928F929F92AF92BF92CF92DF9236
:1032D000EF92FF920F931F93CF93DF93CDB7DEB79B
:1032E00028970FB6F894DEBF0FBECDBF3C017C839C
:1032F0006B831A013E832D834801570126018827DD
:1033000099278E199F096C01CC0CDD1CCB018E0D09
:103310009F1D9A838983D301ED91FC912C0D3D1D56
:103320000684F785E02D7201BC01C3011995C80C14
:10333000D91CF6013197F887EF8341018A0C9B1C59
:103340006B817C818D819E81680F791F6A197B0951
:103350006150710962017F0101E09501A401C3017F
:103360000E949017EF80F88402E09501A401698122
:103370007A81C3010E94901728960FB6F894DEBF99
:103380000FBECDBFDF91CF911F910F91FF90EF90B6
:10339000DF90CF90BF90AF909F908F907F906F9075
:1033A0005F904F903F902F9008952F923F924F92B1
:1033B0005F926F927F928F929F92AF92BF92CF92C5
:1033C000DF92EF92FF920F931F93CF93DF9300D082
:1033D0001F92CDB7DEB79C838B831B012A01490165
:1033E0003801FA82E982DC01ED91FC910680F781D7
:1033F000E02D75011995AB81BC81ED91FC91119780
:103400000680F781E02D860129813A81A301B4016C
:10341000CD011995AB81BC81ED91FC91119706808E
:10342000F781E02D82019101A60169817A81CD01A8
:1034300019950F900F900F900F90DF91CF911F91E2
:103440000F91FF90EF90DF90CF90BF90AF909F9043
:103450008F907F906F905F904F903F902F90089546
:103460002F923F924F925F926F927F928F929F9294
:10347000AF92BF92CF92DF92EF92FF920F931F9382
:10348000CF93DF93CDB7DEB766970FB6F894DEBF64
:103490000FBECDBF1C017E8B6D8B3A012901480107
:1034A000B701B886AF820417150784F4892DC416B6
:1034B000D5060CF018C146016A01602E782E852DC4
:1034C00027016D897E892D8B8E8B0DC0C016D1068C
:1034D000C4F4982D892D4601C92ED82E942D852D02
:1034E0002B01692F782F861497045CF4962D872D75
:1034F0003401892E982E9D898E895E8A4D8A492EA7
:10350000582E6C147D0439F52D893E8942165306D8
:103510002CF0942D852D29019D8B8E8B64157505BE
:1035200044F08D899E898617970714F47E8B6D8BE6
:10353000B201D101ED91FC912D893E89261B370BFB
:103540002F5F3F4F0284F385E02D0F811885A30183
:10355000C1011995D1C0F2012D893E89E21BF30BFF
:10356000F88BEF87C401861997099A8B898BDB0149
:10357000A21BB30BBE83AD83F601E619F709FC87E6
:10358000EB879B01241935093E872D87C6018819D1
:1035900099099C8B8B8B8C149D0429F0D401119775
:1035A000BA87A98702C09A86898653011C821B822A
:1035B0001A821982E985FA85EA15FB050CF441C0E7
:1035C00089819A8169897A890E941137ED88FE88FC
:1035D000E60EF71E8B819C816B857C850E941137DE
:1035E000ED89FE896E0F7F1F29813A818F85988929
:1035F000280F391F3A832983AB81BC81ED81FE817D
:10360000AE0FBF1FBC83AB836E157F052CF49E2DC0
:103610008F2D7B01692F782FD101ED91FC916E19CF
:103620007F099B012F5F3F4F0284F385E02D0F81BF
:103630001885A501B701C1011995BFEFAB1ABB0AE7
:10364000B9CFC501881999092D853E85289F40016C
:10365000299F900C389F900C1124C5018619970959
:10366000AD81BE81A89F3001A99F700CB89F700CDE
:103670001124CA14DB040CF43FC0C4016B897C899B
:103680000E9411377201E60EF71EC3016B857C851F
:103690000E941137ED89FE896E0F7F1F2D853E85B3
:1036A000820E931E8D819E81680E791E6E157F0598
:1036B0002CF49E2D8F2D7B01692F782FD101ED9158
:1036C000FC916E197F099B012F5F3F4F0284F385A8
:1036D000E02D0F811885A501B701C1011995BFEF34
:1036E000AB1ABB0AC6CF4A01602E782E852D4D88B5
:1036F0005E882D8B8E8B05CF66960FB6F894DEBF55
:103700000FBECDBFDF91CF911F910F91FF90EF9032
:10371000DF90CF90BF90AF909F908F907F906F90F1
:103720005F904F903F902F9008952F923F924F922D
:103730005F926F927F928F929F92AF92BF92CF9241
:10374000DF92EF92FF920F931F93CF93DF93CDB74A
:10375000DEB72D970FB6F894DEBF0FBECDBFDC01EC
:103760001896ED91FC9119976E177F070CF09CC08D
:103770001A96ED91FC911B974E175F070CF094C0C1
:103780008C2C912CFB01B6E0CB9EE00DF11D112499
:103790001E161F060CF088C0F40133E0EE0FFF1F69
:1037A0003A95E1F7E40FF51F1E161F060CF07CC0DA
:1037B000CF82FE82ED821C830B831A015C01E5E05F
:1037C0002E9F900111247D876C873B011A82A901ED
:1037D000461B570B59874887C10108969B878A87E4
:1037E0009A81953049F0E885F985E60DF71DE55990
:1037F000FC4FA491A98301C0198221016101B98103
:10380000B0FF12C0D501ED91FC91BF81B13031F410
:103810000480F581E02D2B813C8118C00684F7855A
:10382000E02DEB80FC801CC0ED81FE812B813C8172
:10383000E217F307E1F0D501ED91FC91BF81B130C2
:1038400051F40480F581E02D2D813E81A201B30168
:10385000C50119950CC00684F785E02DED80FE802A
:1038600084019401A6016C857D85C5011995E981C6
:10387000E695E983FFEF4F1A5F0AC80CD91C2A8529
:103880003B854216530609F0BACF3A813F5F3A832F
:103890004FEF641A740A8C859D85880D991D9D874C
:1038A0008C87363009F09CCF2D960FB6F894DEBF8A
:1038B0000FBECDBFDF91CF911F910F91FF90EF9081
:1038C000DF90CF90BF90AF909F908F907F906F9040
:1038D0005F904F903F902F900895CF92EF92FF927C
:1038E0000F931F93CF93DF93EC016A3059F42C8927
:1038F0008E859F8538E0239F800D911D11249F8721
:103900008E8735C06D30A9F1262FEA88FB8808899B
:1039100019894E855F856C857D85CC880E94951BB5
:103920004C89242F30E08C859D8556E0459F800D85
:10393000911D11249D878C874E894423D1F04AEF35
:103940004203B001439F700D112448855985460FED
:10395000571F481759076CF483E0220F331F8A95CD
:10396000E1F78E859F85280F391F3F872E871D869B
:103970001C8681E090E0DF91CF911F910F91FF9025
:10398000EF90CF900895FC0175876487578746872D
:103990000895611101C061E0FC01648B0895FC0190
:1039A000738B628B718B608B0895FC016370658BE8
:1039B0008481958126813781613039F0633029F027
:1039C000918780873387228708953187208793875F
:1039D00082870895FC01808591850895FC01828588
:1039E00093850895FC018FEF81B9158A1586148699
:1039F0001786168681E0848B8FEF9FEF918B808BEB
:103A000080E491E09187808780EE91E093878287C0
:103A100008959F92AF92BF92CF92DF92EF92FF9262
:103A20000F931F93CF93DF93EC01A62EB42EF22EAB
:103A3000902E40EE51E060E471E00E94561588E25D
:103A400093E099838883E8A6AA2DB0E0FD01EC59A4
:103A5000F44FE491F0E0EE0FFF1FE655F44FC590F0
:103A6000D490D98EC88E4B2D50E0FA01EC59F44F0A
:103A7000E491F0E0EE0FFF1FE655F44F859194912D
:103A80009B8F8A8F2F2D30E0F901EC59F44FE49190
:103A9000F0E0EE0FFF1FE655F44F859194919D8F56
:103AA0008C8F10E0F801EC59F44FE491F0E0EE0F48
:103AB000FF1FE655F44F859194919F8F8E8FFD01E6
:103AC000E25EF44FA491A8A3FA01E25EF44F4491A0
:103AD00049A3F901E25EF44F24912AA3F801E25EC2
:103AE000F44F04910BA38A2F80958CA340954DA38E
:103AF00020952EA300950FA3F6018081E82FEA2BD5
:103B0000D601EC93EA8DFB8D908189A1892B80836E
:103B1000EC8DFD8D90818AA1892B8083EE8DFF8DA8
:103B200090818BA1892B808361E08A2D0E945F3474
:103B300061E08B2D0E945F3461E08F2D0E945F3425
:103B400061E0892D0E945F34EE2041F061E08E2D0E
:103B50000E949B3461E08E2D0E945F34CE01DF9184
:103B6000CF911F910F91FF90EF90DF90CF90BF907A
:103B7000AF909F900C94F21CCF93DF93EC01E88DF3
:103B8000F98D908188A1892B8083EC8DFD8D9081AA
:103B90008AA1892B8083EE8DFF8D90818BA1892B4B
:103BA000808388A5882369F060E00E949B3462E0EE
:103BB00070E080E090E00E94D90E61E088A50E944C
:103BC0009B34E88DF98D90818CA189238083EA8DC7
:103BD000FB8D90818DA18923808312B8EC8DFD8DA2
:103BE00090818EA189238083EC8DFD8D90818AA1A7
:103BF000892B808383E0EC8DFD8D20819EA1922313
:103C00009083EC8DFD8D20819AA1922B9083815021
:103C100091F7E88DF98D908188A1892B8083DF91C0
:103C2000CF910895FC01A08DB18D9C9184A1892331
:103C30008C93808591859C01215031098150A28D02
:103C4000B38D2C9195A192239C9394E092B9A48D6D
:103C5000B58D2C9196A192239C93A48DB58D2C911A
:103C600092A1922B9C93A28DB38D2C9191A1922B1A
:103C70009C9332B9A48DB58D2C9196A192239C93DF
:103C8000A48DB58D2C9192A1922B9C93A28DB38D76
:103C90002C9195A192239C9395E092B9A48DB58D1A
:103CA0002C9196A192239C93A48DB58D2C9192A1D9
:103CB000922B9C93A28DB38D2C9191A1922B9C93CE
:103CC00082B9A48DB58D9C9186A189238C93A48DF6
:103CD000B58D9C9182A1892B8C93828593859C01C3
:103CE000215031098150A28DB38D2C9195A1922341
:103CF0009C9398E092B9A48DB58D2C9196A19223B6
:103D00009C93A48DB58D2C9192A1922B9C93A28D06
:103D1000B38D2C9191A1922B9C9332B9A48DB58D2A
:103D20002C9196A192239C93A48DB58D2C9192A158
:103D3000922B9C93A28DB38D2C9195A192239C9351
:103D400099E092B9A48DB58D2C9196A192239C9364
:103D5000A48DB58D2C9192A1922B9C93A28DB38DA5
:103D60002C9191A1922B9C9382B9A48DB58D9C919D
:103D700086A189238C93A48DB58D9C9182A1892BDA
:103D80008C93A08DB18D9C9180A1892B8C930895EB
:103D90001F93CF93DF93FC01A08DB18D9C9184A1E3
:103DA00089238C93A28DB38D9C9185A189238C93BB
:103DB00087898230B1F09BEF980F923090F081119B
:103DC0000EC012B8A48DB58D9C9186A189238C93C9
:103DD000A48DB58D9C9182A1892B8C9304C08330D6
:103DE00011F48CE201C082E282B9A48DB58D9C9160
:103DF00086A189238C93A48DB58D9C9182A1892B5A
:103E00008C93A28DB38D9C9181A1892B8C9372B9D7
:103E1000A48DB58D9C9186A189238C93A48DB58D9D
:103E20009C9182A1892B8C9362B9A48DB58D9C91B4
:103E300086A189238C93A48DB58D9C9182A1892B19
:103E40008C932150310941095109DA01C90136E049
:103E5000B695A795979587953A95D1F77613F9C0BA
:103E6000019708F465C060E1A48DB58DCC9176A171
:103E70007C237C93A48DB58DCC9172A17C2B7C93FB
:103E8000A48DB58DCC9176A17C237C93A48DB58D2A
:103E9000CC9172A17C2B7C93A48DB58DCC9176A115
:103EA0007C237C93A48DB58DCC9172A17C2B7C93CB
:103EB000A48DB58DCC9176A17C237C93A48DB58DFA
:103EC000CC9172A17C2B7C93A48DB58DCC9176A1E5
:103ED0007C237C93A48DB58DCC9172A17C2B7C939B
:103EE000A48DB58DCC9176A17C237C93A48DB58DCA
:103EF000CC9172A17C2B7C93A48DB58DCC9176A1B5
:103F00007C237C93A48DB58DCC9172A17C2B7C936A
:103F1000A48DB58DCC9176A17C237C93A48DB58D99
:103F2000CC9172A17C2B7C93615009F09DCF98CFEE
:103F30002F732150C8F0A48DB58D9C9186A1892343
:103F40008C93A48DB58D9C9182A1892B8C93A48D8B
:103F5000B58D9C9186A189238C93A48DB58D9C9160
:103F600082A1892B8C93E5CFA08DB18D9C9180A1EE
:103F7000892B8C93DF91CF911F91089572B9C48DD5
:103F8000D58D1881B6A1B123B883C48DD58D188184
:103F9000B2A1B12BB88362B9C48DD58D1881B6A1F9
:103FA000B123B883C48DD58D1881B2A1B12BB8834C
:103FB00072B9C48DD58D1881B6A1B123B883C48DD3
:103FC000D58D1881B2A1B12BB88362B9C48DD58DBE
:103FD0001881B6A1B123B883C48DD58D1881B2A143
:103FE000B12BB88372B9C48DD58D1881B6A1B12318
:103FF000B883C48DD58D1881B2A1B12BB88362B9B5
:10400000C48DD58D1881B6A1B123B883C48DD58D4B
:104010001881B2A1B12BB88372B9C48DD58D188126
:10402000B6A1B123B883C48DD58D1881B2A1B12BAF
:10403000B88362B9C48DD58D1881B6A1B123B88378
:10404000C48DD58D1881B2A1B12BB883A15009F0D0
:1040500095CF019710F0A0E191CF2F73215008F474
:1040600083CF72B9A48DB58D9C9186A189238C9341
:10407000A48DB58D9C9182A1892B8C9362B9A48D5E
:10408000B58D9C9186A189238C93A48DB58D9C912F
:1040900082A1892B8C93E2CF4C7F38E0439FC001F3
:1040A000112430E043E0359527954A95E1F7822BBE
:1040B000932B687F962B0895CF92DF92EF92FF9219
:1040C000CF93DF93EC0169017A01E88DF98D90813E
:1040D0008CA189238083EA8DFB8D90818DA189231A
:1040E000808362B9EC8DFD8D90818EA189238083C0
:1040F000EC8DFD8D90818AA1892B8083EA8DFB8DCB
:10410000908189A1892B80838AE090E00E94150F1D
:104110008F2D9927AA27BB2782B9EC8DFD8D908121
:104120008EA189238083EC8DFD8D90818AA1892BBE
:1041300080838AE090E00E94150FC701AA27BB2761
:1041400082B9EC8DFD8D90818EA189238083EC8DC9
:10415000FD8D90818AA1892B80838AE090E00E9466
:10416000150FBB27AF2D9E2D8D2D82B9EC8DFD8DAA
:1041700090818EA189238083EC8DFD8D90818AA111
:10418000892B80838AE090E00E94150FC2B8EC8DE5
:10419000FD8D90818EA189238083EC8DFD8D908192
:1041A0008AA1892B8083E88DF98D908188A1892B44
:1041B0008083DF91CF91FF90EF90DF90CF900895B3
:1041C000CF92DF92EF92FF920F931F93CF93DF93E3
:1041D000EC01CB017A01E88DF98D50814CA145238A
:1041E00040834F89542F5B7F09F069C35D8952304A
:1041F00099F0533039F15130B1F56FE371E0DB01E3
:10420000A01BB10B6E197F09FC01D62EC72E8901A8
:104210009B017C01CD012AC0EFE3F1E0BF01621BED
:10422000730B9F01281B390B8FED91E0DC01A01B64
:10423000B10B8C010E191F09F801D22EC32E7D017E
:10424000CB0114C06FED71E0DB01A21BB30B9B012E
:10425000281B390BC901F901DE2CCF2C98018C01E8
:10426000C7017D0103C0F701D62EC92EAA8DBB8DD3
:104270005DA1443009F09FC14C9154235C9312B866
:10428000AC8DBD8D5C914EA145234C93AC8DBD8D05
:104290005C914AA1452B4C9347E342B9AC8DBD8D4F
:1042A0005C914EA145234C93AC8DBD8D5C914AA190
:1042B000452B4C93AA8DBB8D5C9149A1452B4C930A
:1042C00092B9AC8DBD8D4C919EA194239C93AC8DE5
:1042D000BD8D4C919AA1942B9C9382B9AC8DBD8DD0
:1042E0009C918EA189238C93AC8DBD8D9C918AA1CC
:1042F000892B8C93AA8DBB8D9C918DA189238C9346
:1043000012B8AC8DBD8D9C918EA189238C93AC8D00
:10431000BD8D9C918AA1892B8C9386E382B9AC8D4B
:10432000BD8D9C918EA189238C93AC8DBD8D9C916C
:104330008AA1892B8C93AA8DBB8D9C9189A1892BF5
:104340008C9332B9AC8DBD8D9C918EA189238C93B9
:10435000AC8DBD8D9C918AA1892B8C9322B9AC8D9B
:10436000BD8D9C918EA189238C93AC8DBD8D9C912C
:104370008AA1892B8C93AA8DBB8D9C918DA18923B9
:104380008C9312B8AC8DBD8D9C918EA189238C939A
:10439000AC8DBD8D9C918AA1892B8C9389E382B9C8
:1043A000AC8DBD8D9C918EA189238C93AC8DBD8DE0
:1043B0009C918AA1892B8C93AA8DBB8D9C9189A1FC
:1043C000892B8C93F2B8AC8DBD8D9C918EA18923E5
:1043D0008C93AC8DBD8D9C918AA1892B8C93E2B876
:1043E000AC8DBD8D9C918EA189238C93AC8DBD8DA0
:1043F0009C918AA1892B8C93AA8DBB8D9C918DA1B8
:1044000089238C9312B8AC8DBD8D9C918EA189238C
:104410008C93AC8DBD8D9C918AA1892B8C9388E364
:1044200082B9AC8DBD8D9C918EA189238C93AC8D6E
:10443000BD8D9C918AA1892B8C93AA8DBB8D9C915B
:1044400089A1892B8C9312B9AC8DBD8D9C918EA1C5
:1044500089238C93AC8DBD8D9C918AA1892B8C93E3
:1044600002B9AC8DBD8D9C918EA189238C93AC8DAE
:10447000BD8D9C918AA1892B8C93AA8DBB8D9C911B
:104480008DA189238C9312B8AC8DBD8D9C918EA18A
:1044900089238C93AC8DBD8D9C918AA1892B8C93A3
:1044A00080E282B9AC8DBD8D9C918EA189238C93C5
:1044B000AC8DBD8D9C918AA1892B8C93AA8DBB8DCF
:1044C0009C9189A1892B8C93C2B8AC8DBD8D9C9198
:1044D0008EA189238C93AC8DBD8D9C918AA1892B53
:1044E0008C93D2B8AC8DBD8D9C918EA189238C9379
:1044F000AC8DBD8D9C918AA1892B8C93AA8DBB8D8F
:104500009C918DA189238C9312B8AC8DBD8D9C910B
:104510008EA189238C93AC8DBD8D9C918AA1892B12
:104520008C9381E282B9AC8DBD8D9C918EA1892343
:104530008C93AC8DBD8D9C918AA1892B8C93AA8D77
:10454000BB8D9C9189A1892B8C93F2B9AC8DBD8DCB
:104550009C918EA189238C93AC8DBD8D9C918AA159
:10456000892B8C93E2B9EC8DFD8D90818EA18923EE
:104570008083EC8DFD8D90818AA1892B8083EA8DCB
:10458000FB8D90818DA18923808382E282B9EC8D9D
:10459000FD8D90818EA189238083EC8DFD8D90818E
:1045A0008AA1892B8083EA8DFB8D908189A1892B3B
:1045B000808312B877C14C9154235C9312B8AC8DB0
:1045C000BD8D5C914EA145234C93AC8DBD8D5C910E
:1045D0004AA1452B4C9340E542B9AC8DBD8D5C9111
:1045E0004EA145234C93AC8DBD8D5C914AA1452BCA
:1045F0004C93AA8DBB8D5C9149A1452B4C9392B9EC
:10460000AC8DBD8D4C919EA194239C93AC8DBD8DA2
:104610004C919AA1942B9C9382B9AC8DBD8D9C91A9
:104620008EA189238C93AC8DBD8D9C918AA1892B01
:104630008C93AA8DBB8D9C918DA189238C9312B8EC
:10464000AC8DBD8D9C918EA189238C93AC8DBD8D3D
:104650009C918AA1892B8C9381E582B9AC8DBD8D0B
:104660009C918EA189238C93AC8DBD8D9C918AA148
:10467000892B8C93AA8DBB8D9C9189A1892B8C93BE
:1046800032B9AC8DBD8D9C918EA189238C93AC8D5C
:10469000BD8D9C918AA1892B8C9322B9AC8DBD8D47
:1046A0009C918EA189238C93AC8DBD8D9C918AA108
:1046B000892B8C93AA8DBB8D9C918DA189238C9382
:1046C00012B8AC8DBD8D9C918EA189238C93AC8D3D
:1046D000BD8D9C918AA1892B8C9382E582B9AC8D8A
:1046E000BD8D9C918EA189238C93AC8DBD8D9C91A9
:1046F0008AA1892B8C93AA8DBB8D9C9189A1892B32
:104700008C93F2B8AC8DBD8D9C918EA189238C9336
:10471000AC8DBD8D9C918AA1892B8C93E2B8AC8D18
:10472000BD8D9C918EA189238C93AC8DBD8D9C9168
:104730008AA1892B8C93AA8DBB8D9C918DA18923F5
:104740008C9312B8AC8DBD8D9C918EA189238C93D6
:10475000AC8DBD8D9C918AA1892B8C9383E582B908
:10476000AC8DBD8D9C918EA189238C93AC8DBD8D1C
:104770009C918AA1892B8C93AA8DBB8D9C9189A138
:10478000892B8C9312B9AC8DBD8D9C918EA1892300
:104790008C93AC8DBD8D9C918AA1892B8C9302B991
:1047A000AC8DBD8D9C918EA189238C93AC8DBD8DDC
:1047B0009C918AA1892B8C93AA8DBB8D9C918DA1F4
:1047C00089238C9312B8AC8DBD8D9C918EA18923C9
:1047D0008C93AC8DBD8D9C918AA1892B8C9380E2AA
:1047E00082B9AC8DBD8D9C918EA189238C93AC8DAB
:1047F000BD8D9C918AA1892B8C93AA8DBB8D9C9198
:1048000089A1892B8C93C2B8AC8DBD8D9C918EA152
:1048100089238C93AC8DBD8D9C918AA1892B8C931F
:10482000D2B8AC8DBD8D9C918EA189238C93AC8D1B
:10483000BD8D9C918AA1892B8C93AA8DBB8D9C9157
:104840008DA189238C9312B8AC8DBD8D9C918EA1C6
:1048500089238C93AC8DBD8D9C918AA1892B8C93DF
:1048600081E282B9AC8DBD8D9C918EA189238C9300
:10487000AC8DBD8D9C918AA1892B8C93AA8DBB8D0B
:104880009C9189A1892B8C93F2B9AC8DBD8D9C91A3
:104890008EA189238C93AC8DBD8D9C918AA1892B8F
:1048A0008C93E2B9EC8DFD8D90818EA1892380835C
:1048B000EC8DFD8D90818AA1892B808363C141306D
:1048C00009F02DC1EA8DFB8D50814DA14523408318
:1048D00042E042B9EC8DFD8D50814EA145234083CD
:1048E000EC8DFD8D50814AA1452B4083EA8DFB8DD7
:1048F000508149A1452B408392B9EC8DFD8D4081BB
:104900009EA194239083EC8DFD8D40819AA1942BE0
:104910009083EA8DFB8D40819DA19423908393E049
:1049200092B9EC8DFD8D40819EA194239083EC8DF6
:10493000FD8D40819AA1942B9083EA8DFB8D40815F
:1049400099A1942B908382B9EC8DFD8D90818EA1DD
:1049500089238083EC8DFD8D90818AA1892B8083B2
:10496000EA8DFB8D90818DA18923808386E082B9B9
:10497000EC8DFD8D90818EA189238083EC8DFD8D42
:1049800090818AA1892B8083EA8DFB8D908189A1FA
:10499000892B8083F2B8EC8DFD8D90818EA18923C7
:1049A0008083EC8DFD8D90818AA1892B8083EA8D97
:1049B000FB8D90818DA18923808387E082B9EC8D66
:1049C000FD8D90818EA189238083EC8DFD8D90815A
:1049D0008AA1892B8083EA8DFB8D908189A1892B07
:1049E0008083E2B8EC8DFD8D90818EA18923808338
:1049F000EC8DFD8D90818AA1892B8083EA8DFB8DC2
:104A000090818DA18923808384E082B9EC8DFD8D16
:104A100090818EA189238083EC8DFD8D90818AA168
:104A2000892B8083EA8DFB8D908189A1892B8083DE
:104A300032B9EC8DFD8D90818EA189238083EC8D20
:104A4000FD8D90818AA1892B8083EA8DFB8D9081D9
:104A50008DA18923808385E082B9EC8DFD8D9081C5
:104A60008EA189238083EC8DFD8D90818AA1892B75
:104A70008083EA8DFB8D908189A1892B808322B967
:104A8000EC8DFD8D90818EA189238083EC8DFD8D31
:104A900090818AA1892B8083EA8DFB8D90818DA1E5
:104AA0008923808388E082B9EC8DFD8D90818EA171
:104AB00089238083EC8DFD8D90818AA1892B808351
:104AC000EA8DFB8D908189A1892B808312B9EC8DB1
:104AD000FD8D90818EA189238083EC8DFD8D908149
:104AE0008AA1892B8083EA8DFB8D90818DA18923FA
:104AF000808389E082B9EC8DFD8D90818EA1892320
:104B00008083EC8DFD8D90818AA1892B8083EA8D35
:104B1000FB8D908189A1892B808302B9C3CE5EEF82
:104B2000540F523018F04550423060F5092E000CF9
:104B3000AA0BBB0BDC0199278827A901330F660B51
:104B4000770B9A01AB01282B392B4A2B5B2B6AE29E
:104B5000CE010E945C20A701FF0C660B770BBA0107
:104B600055274427012E000C220B330BDB01CA0111
:104B7000802B912BA22BB32B9C01AD016BE2CE01BC
:104B80000E945C20E88DF98D908188A1892B80831B
:104B9000DF91CF911F910F91FF90EF90DF90CF9019
:104BA0000895CF92DF92EF92FF920F931F93CF93CE
:104BB000DF93EC016801121613060CF04EC057FD8E
:104BC0004CC08A859B85481759070CF046C0E8857C
:104BD000F9856E177F070CF040C07B01E20EF31ED3
:104BE000C701019797FD39C077FF35C060E070E0DD
:104BF0008E179F072CF0CF0101977F01E61AF70A65
:104C00008A019C01CE010E94E0209701FF0C440B19
:104C1000550BB601CE010E94C81E8F89811110C0AC
:104C20000A851B85015011092885398521503109D4
:104C300040E050E060E070E0CE010E94E0200DC056
:104C4000CE01DF91CF911F910F91FF90EF90DF90F8
:104C5000CF900C94121E7901CBCFDF91CF911F9191
:104C60000F91FF90EF90DF90CF900895CF92DF9259
:104C7000EF92FF920F931F93CF93DF93EC016801A4
:104C8000121613060CF04FC077FD4DC0888599852C
:104C9000681779070CF047C0EA85FB854E175F0758
:104CA0000CF041C07A01E20EF31E87010150110998
:104CB00017FD39C057FF35C040E050E00E171F0701
:104CC00034F08F01015011097F01E41AF50A9B01AC
:104CD000CE010E94E0209701FF0C440B550BB6015A
:104CE000CE010E94C81E8F89811110C00A851B85C4
:104CF00001501109288539852150310940E050E0E3
:104D000060E070E0CE010E94E0200DC0CE01DF9196
:104D1000CF911F910F91FF90EF90DF90CF900C9467
:104D2000121E7901CBCFDF91CF911F910F91FF9090
:104D3000EF90DF90CF9008958F929F92AF92BF92A5
:104D4000CF92DF92EF92FF920F931F93CF93DF9357
:104D5000EC014701121613060CF06BC01016110679
:104D60000CF067C0A885B9856A177B070CF061C095
:104D7000CA84DB844C155D050CF05BC05B01A20EA0
:104D8000B31EC501019797FD54C07A01E00EF11ED4
:104D9000F7013197F7FD4DC077FF49C060E070E043
:104DA00057FD02C0780102C040E050E08A179B071F
:104DB0002CF0CD0101975D01A61AB70AEC15FD058F
:104DC0002CF0F60131977601E41AF50A8F019C0167
:104DD000CE010E94E0209701D5010E944F379B0130
:104DE000AC01B401CE010E94C81E8F89811110C090
:104DF0000A851B8501501109288539852150310903
:104E000040E050E060E070E0CE010E94E02011C080
:104E1000CE01DF91CF911F910F91FF90EF90DF9026
:104E2000CF90BF90AF909F908F900C94121E59011D
:104E3000B7CFDF91CF911F910F91FF90EF90DF904F
:104E4000CF90BF90AF909F908F900895EF92FF9278
:104E50000F931F93CF93DF93EC017B018F89811117
:104E60009FC0ED89E150E33070F4F0E0EE0FFF1FDA
:104E7000DF01A25EBC4F3C9111964C91E85EFC4F65
:104E80009081218104C090E020E030E040E0E88D96
:104E9000F98D50818CA185238083EA8DFB8D508113
:104EA0008DA18523808312B8EC8DFD8D50818EA15C
:104EB00085238083EC8DFD8D50818AA1852B808395
:104EC00080E282B9EC8DFD8D50818EA18523808397
:104ED000EC8DFD8D50818AA1852B8083EA8DFB8D21
:104EE000508189A1852B808342B9EC8DFD8D408155
:104EF0008EA184238083EC8DFD8D40818AA1842B3B
:104F0000808332B9EC8DFD8D30818EA18323808327
:104F1000EC8DFD8D30818AA1832B8083EA8DFB8D02
:104F200030818DA18323808312B8EC8DFD8D30817B
:104F30008EA183238083EC8DFD8D30818AA1832B0C
:104F4000808381E282B9EC8DFD8D30818EA1832337
:104F50008083EC8DFD8D30818AA1832B8083EA8D47
:104F6000FB8D308189A1832B808322B9EC8DFD8D4F
:104F700020818EA182238083EC8DFD8D20818AA1EA
:104F8000822B808392B9EC8DFD8D90818EA1892337
:104F90008083EC8DFD8D90818AA1892B808312C046
:104FA0008150863078F40A851B85015011092885C7
:104FB00039852150310940E050E060E070E0CE01D9
:104FC0000E94E02020E038E542E050E0B701CE0149
:104FD000DF91CF911F910F91FF90EF900C94C81E1D
:104FE000EF92FF920F931F93CF93DF93EC01F22E7A
:104FF000E32E77FDFAC157FDF8C1888599856817BA
:1050000079070CF0F2C18A859B85481759070CF087
:10501000ECC1E88DF98D90818CA1892380838F89E3
:10502000982F9B7F09F0B6C08D89823059F083306C
:10503000B1F08130D1F48FE391E0841B950BAB018B
:10504000BC0113C08FE391E09C01261B370BB90113
:105050008FED91E09C01241B350BA90106C08FED5B
:1050600091E0861B970BBA01AC01EA8DFB8D908114
:105070008DA18923808312B8EC8DFD8D90818EA146
:1050800089238083EC8DFD8D90818AA1892B80837B
:1050900080E282B9EC8DFD8D90818EA18923808381
:1050A000EC8DFD8D90818AA1892B8083EA8DFB8D0B
:1050B000908189A1892B808372B9EC8DFD8D9081BF
:1050C0008EA189238083EC8DFD8D90818AA1892B0F
:1050D000808362B9EC8DFD8D90818EA189238083C0
:1050E000EC8DFD8D90818AA1892B8083EA8DFB8DCB
:1050F00090818DA18923808312B8EC8DFD8D9081E4
:105100008EA189238083EC8DFD8D90818AA1892BCE
:10511000808381E282B9EC8DFD8D90818EA18923FF
:105120008083EC8DFD8D90818AA1892B8083EA8D0F
:10513000FB8D908189A1892B808352B9EC8DFD8DE7
:1051400090818EA189238083EC8DFD8D90818AA131
:10515000892B808342B9EC8DFD8D90818EA18923AE
:105160008083EC8DFD8D90818AA1892B8083EA8DCF
:10517000FB8D90818DA18923808312B8EC8DFD8DEC
:1051800090818EA189238083EC8DFD8D90818AA1F1
:10519000892BD5C0813009F0D5C0ED89E150E330CD
:1051A00028F4F0E0EB5EFC4F908101C090E0EA8DC6
:1051B000FB8D20818DA18223808386E182B9EC8DD5
:1051C000FD8D20818EA182238083EC8DFD8D208139
:1051D0008AA1822B8083EA8DFB8D208189A1822B7D
:1051E000808392B9EC8DFD8D90818EA1892380837F
:1051F000EC8DFD8D90818AA1892B8083EA8DFB8DBA
:1052000090818DA18923808382E082B9EC8DFD8D10
:1052100090818EA189238083EC8DFD8D90818AA160
:10522000892B8083EA8DFB8D908189A1892B8083D6
:1052300072B9EC8DFD8D90818EA189238083EC8DD8
:10524000FD8D90818AA1892B8083EA8DFB8D9081D1
:105250008DA18923808383E082B9EC8DFD8D9081BF
:105260008EA189238083EC8DFD8D90818AA1892B6D
:105270008083EA8DFB8D908189A1892B808362B91F
:10528000EC8DFD8D90818EA189238083EC8DFD8D29
:1052900090818AA1892B8083EA8DFB8D90818DA1DD
:1052A0008923808386E082B9EC8DFD8D90818EA16B
:1052B00089238083EC8DFD8D90818AA1892B808349
:1052C000EA8DFB8D908189A1892B808352B9EC8D69
:1052D000FD8D90818EA189238083EC8DFD8D908141
:1052E0008AA1892B8083EA8DFB8D90818DA18923F2
:1052F000808387E082B9EC8DFD8D90818EA189231A
:105300008083EC8DFD8D90818AA1892B8083EA8D2D
:10531000FB8D908189A1892B808342B9EC8DFD8D15
:1053200090818EA189238083EC8DFD8D90818AA14F
:10533000892B8083EA8DFB8D90818DA189238083C9
:1053400082E220C09EEF980F923020F0855082308C
:1053500008F045C00A851B8501501109288539854B
:1053600021503109CE010E94E020E88DF98D908115
:105370008CA189238083EA8DFB8D90818DA1892367
:1053800080838CE282B9EC8DFD8D90818EA1892382
:105390008083EC8DFD8D90818AA1892B8083EA8D9D
:1053A000FB8D908189A1892B8083E2B8EC8DFD8DE6
:1053B00090818EA189238083EC8DFD8D90818AA1BF
:1053C000892B8083F2B8EC8DFD8D90818EA189238D
:1053D0008083EC8DFD8D90818AA1892B8083E88D5F
:1053E000F98D908188A1892B8083DF91CF911F91C6
:1053F0000F91FF90EF900895DF92EF92FF920F933D
:105400001F93CF93DF93EC010E94D51CE88DF98D9B
:1054100090818CA1892380838F898B7F09F05DC067
:10542000ED89E150E33038F4F0E0EE0FFF1FE15F6B
:10543000FC4F908101C090E3EA8DFB8D20818DA10E
:105440008223808312B8EC8DFD8D20818EA1822372
:105450008083EC8DFD8D20818AA1822B808383E067
:1054600082B9EC8DFD8D20818EA182238083EC8D0D
:10547000FD8D20818AA1822B8083EA8DFB8D208186
:1054800089A1822B808380E182B9EC8DFD8D208102
:105490008EA182238083EC8DFD8D20818AA1822BB9
:1054A000808392B9EC8DFD8D90818EA189238083BC
:1054B000EC8DFD8D90818AA1892B80830A851B85C7
:1054C00001501109288539852150310940E050E00B
:1054D00060E070E0CE010E94E0208F898130A1F56C
:1054E000ED89E150E33028F4F0E0E45FFC4F908177
:1054F00001C090E0EA8DFB8D20818DA18223808305
:1055000086E182B9EC8DFD8D20818EA1822380837E
:10551000EC8DFD8D20818AA1822B8083EA8DFB8D0D
:10552000208189A1822B808392B9EC8DFD8D9081A1
:105530008EA189238083EC8DFD8D90818AA1892B9A
:105540008083CE010E94121E8F898B7F823009F0EA
:1055500049C08D89813071F050F0823029F083305C
:1055600059F4F8E2DF2E08C0A8E4DA2E05C0E8E816
:10557000DE2E02C078EED72EEA8DFB8D90818DA1B4
:105580008923808386E382B9EC8DFD8D90818EA185
:1055900089238083EC8DFD8D90818AA1892B808366
:1055A000EA8DFB8D908189A1892B8083D2B8EC8D07
:1055B000FD8D90818EA189238083EC8DFD8D90815E
:1055C0008AA1892B80830A851B85015011092885B2
:1055D00039852150310940E050E060E070E0CE01B3
:1055E0000E94E0208F89833009F048C08D89813086
:1055F00069F048F0823029F0833051F460E6E62EFD
:1056000007C0E12C05C050ECE52E02C040EAE42EB4
:10561000EA8DFB8D90818DA18923808386E382B9F9
:10562000EC8DFD8D90818EA189238083EC8DFD8D85
:1056300090818AA1892B8083EA8DFB8D908189A13D
:10564000892B8083E2B8EC8DFD8D90818EA189231A
:105650008083EC8DFD8D90818AA1892B80830A85C2
:105660001B8501501109288539852150310940E0F9
:1056700050E060E070E0CE010E94E0208F8985302C
:1056800009F049C08D89813071F050F0823029F0E5
:10569000833059F428EEF22E08C038E8F32E05C006
:1056A0009AE0F92E02C088E2F82EEA8DFB8D9081F7
:1056B0008DA18923808386E382B9EC8DFD8D908155
:1056C0008EA189238083EC8DFD8D90818AA1892B09
:1056D0008083EA8DFB8D908189A1892B8083F2B82C
:1056E000EC8DFD8D90818EA189238083EC8DFD8DC5
:1056F00090818AA1892B80830A851B85015011091D
:10570000288539852150310940E050E060E070E0A3
:10571000CE010E94E020DF91CF911F910F91FF9069
:10572000EF90DF9008958F929F92AF92BF92CF92A9
:10573000DF92EF92FF920F931F93CF93DF93EC01D1
:105740008B010E94BC1D68EC70E080E090E00E943C
:10575000D90E053283E9180729F00832E3E91E075C
:1057600009F064C01F8AE88DF98D90818CA189238E
:10577000808300E719E0F80185919491F801329651
:10578000659174918F3F910529F480E090E00E942B
:10579000D90E40C0EA8DFB8D30812DA123232083BB
:1057A00092B9EC8DFD8D20819EA192239083EC8D8A
:1057B000FD8D20819AA1922B908382B9EC8DFD8D75
:1057C00090818EA189238083EC8DFD8D90818AA1AB
:1057D000892B8083EA8DFB8D908189A1892B808321
:1057E00072B9EC8DFD8D90818EA189238083EC8D23
:1057F000FD8D90818AA1892B808362B9EC8DFD8D0E
:1058000090818EA189238083EC8DFD8D90818AA16A
:10581000892B80830C5F1F4FFAE00C331F0709F0C0
:10582000AACF6D89CE010E94FC2906C7013483E905
:10583000180709F064C082E08F8BE88DF98D9081A4
:105840008CA18923808380E0E82FF0E0EC5FF64FA5
:10585000949112E0180FE1E0E80FF0E0EC5FF64FF2
:1058600064919F3F39F470E080E090E00E94D90E8F
:10587000812F41C0E88DF98D30812CA12323208315
:10588000EA8DFB8D30812DA12323208392B9EC8DED
:10589000FD8D20819EA192239083EC8DFD8D208132
:1058A0009AA1922B9083EA8DFB8D208199A1922B56
:1058B0009083860F8E5FE12FE817A9F021E02E0F6D
:1058C000F0E0EC5FF64FE491E2B9EC8DFD8D3081B4
:1058D0009EA193239083EC8DFD8D30819AA1932B13
:1058E0009083E22FE9CF812F860FE88DF98D2081FB
:1058F00098A1922B90838C3608F4A6CF7CC70735ED
:10590000E3E81E0709F064C083E08F8BE88DF98D12
:1059100090818CA18923808380E0E82FF0E0E45C13
:10592000F54F949112E0180FE1E0E80FF0E0E45C2D
:10593000F54F64919F3F39F470E080E090E00E9461
:10594000D90E812F41C0E88DF98D30812CA1232300
:105950002083EA8DFB8D30812DA12323208392B9F2
:10596000EC8DFD8D20819EA192239083EC8DFD8D89
:1059700020819AA1922B9083EA8DFB8D208199A1A1
:10598000922B9083860F8E5FE12FE817A9F021E01C
:105990002E0FF0E0E45CF54FE491E2B9EC8DFD8D63
:1059A00030819EA193239083EC8DFD8D30819AA14F
:1059B000932B9083E22FE9CF812F860FE88DF98D0D
:1059C000208198A1922B9083863408F4A6CF13C728
:1059D0000537F5E71F0709F056C081E08F8BE88D8A
:1059E000F98D90818CA18923808302E81AE0F80167
:1059F00094913196E4919F3F39F46E2F70E080E0EE
:105A000090E00E94D90E26C0AA8DBB8D2C918DA14D
:105A100082238C9392B9AC8DBD8D9C918EA18923EC
:105A20008C93AC8DBD8D9C918AA1892B8C93AA8D72
:105A3000BB8D9C9189A1892B8C93E2B9EC8DFD8D56
:105A400090818EA189238083EC8DFD8D90818AA128
:105A5000892B80830E5F1F4FFAE0083D1F0739F640
:105A60006D89CE010E94FC29CE01DF91CF911F915B
:105A70000F91FF90EF90DF90CF90BF90AF909F90ED
:105A80008F900C94121E043581E0180709F0E0C5D0
:105A900084E08F8BE88DF98D90818CA189238083A0
:105AA000EA8DFB8D90818DA18923808312B8EC8DC6
:105AB000FD8D90818EA189238083EC8DFD8D908159
:105AC0008AA1892B808311E112B9EC8DFD8D908123
:105AD0008EA189238083EC8DFD8D90818AA1892BF5
